:1000000018C03CC03BC03AC038C238C037C036C048
:1000100035C034C079C232C0E7C230C02FC000370B
:10002000003800360101010101010102040810201D
:10003000660511241FBECFE5D2E0DEBFCDBF10E0C4
:10004000A0E6B0E0E0E7FFE002C005900D92A43C1E
:10005000B107D9F720E0A4ECB0E001C01D92AF3F9A
:10006000B207E1F710E0C9E1D0E003C02197FE013B
:1000700080D5C831D107D1F7C6D278C7C1CF282FD4
:1000800030E0F901E65DFF4F9491F901EC5DFF4F1F
:10009000E491EE23E1F081110FC08AB58F738ABD20
:1000A000F0E0EE5DFF4FA491B0E0EC91E92381E038
:1000B00090E079F480E00895813019F48AB58F7C5E
:1000C000EECF843069F78CB58F7C8CBDE9CF80E0B2
:1000D00090E00895282F30E0F901E65DFF4F9491FC
:1000E000F901EC5DFF4FE491EE23A1F0811113C003
:1000F0008AB58F738ABDF0E0E05EFF4FA491B0E057
:100100008FB7611113C0F8942C91E92FE095E22389
:10011000EC938FBF0895813019F48AB58F7CEACFB4
:10012000843049F78CB58F7C8CBDE5CFF894EC9189
:10013000E92BEECF90E0FC01E65DFF4F24918C5D52
:100140009F4FFC0184918823A1F090E0FC01E25EC6
:10015000FF4FA491B0E0805E9F4FFC0184918FB768
:10016000611108C0F8949C91E22FE095E923EC938B
:100170008FBF0895F894EC91E22BF9CF8E7F009712
:1001800009F40895000000000000000000000000D5
:10019000000000000000000000000000000000005F
:1001A000000000000000000000000000000000004F
:1001B000000000000000000000000297E0CF3FB701
:1001C000F8948091E9009091EA00A091EB00B09141
:1001D000EC002FB508B602FE05C02F3F19F00196BE
:1001E000A11DB11D3FBFBA2FA92F982F8827BC0191
:1001F000CD01620F711D811D911D42E0660F771FB9
:10020000881F991F4A95D1F70895CF92DF92EF92F8
:10021000FF92CF93DF936B017C01D1DFEB01CFDF46
:100220006C1B7D0B683E7340D0F381E0C81AD10887
:10023000E108F108C851DC4FC114D104E104F10414
:1002400071F7DF91CF91FF90EF90DF90CF900895FD
:10025000EF92FF921F93CF93DF9361E08091F700BD
:1002600039DF6AEF70E080E090E0CFDF2FB7F894DD
:100270008091ED009091EE00A091EF00B091F00020
:100280002FBF4091FA005091FB006091FC007091EB
:10029000FD0084179507A607B70740F41092FA00EF
:1002A0001092FB001092FC001092FD002091FE00C5
:1002B000211118C04091FA005091FB006091FC00A0
:1002C0007091FD00841B950BA60BB70B803D9740EA
:1002D000A105B10538F481E0DF91CF911F91FF9026
:1002E000EF9008951092FE002FB7F8948091ED00E2
:1002F0009091EE00A091EF00B091F0002FBF80939D
:10030000FA009093FB00A093FC00B093FD001092C4
:10031000F5001092F4001092F3001092F200109287
:10032000F10061E08091F70005DF60E08091F70067
:10033000D1DE64E170E080E090E067DFF89461E096
:100340008091F700C7DE88E290E018DF60E08091DE
:10035000F700F0DE10E081E0C0E0D0E0E82EF12C04
:100360008091F7008CDE8E159F0531F4DF5F81E010
:1003700090E004DFDF3FA1F78091F70080DEDF3FF0
:10038000C1F0C43098F0C0FD11C0E12FE695E695AC
:10039000E695F0E0EF50FF4F9081990F9083209108
:1003A000F9002D1710F4916090831F5FCF5FC53562
:1003B000A1F678941832B8F04091F5002091F10040
:1003C0008091F200280F3327331F8091F300280F0C
:1003D000311D8091F400820F932F911D99274817AA
:1003E000190609F478CF80E077CFCF92DF92EF92B1
:1003F000FF921F93CF93DF93CAE0D0E0C12CD12CA2
:1004000076011AEF180F9091CE0087B18F72292FC5
:100410002295220F220F207C822B990F990F907129
:10042000892B87B987B1807F812B87B9369A369916
:10043000FECF64B175B1072E000C880B990B9FD4C9
:100440009B01AC01C701B6019BD36B017C016FE03E
:1004500070E080E090E0D9DE2197A9F620E030E05E
:1004600040E251E4C701B601EFD3DF91CF911F9174
:10047000FF90EF90DF90CF90089578941F920F92A5
:100480000FB60F9211242F933F938F939F93AF93A7
:10049000BF938091ED009091EE00A091EF00B0919C
:1004A000F0003091E8002CE7230F2D3728F02FEFD4
:1004B000230F0196A11DB11D2093E8008093ED004C
:1004C0009093EE00A093EF00B093F0008091E900CC
:1004D0009091EA00A091EB00B091EC000196A11D73
:1004E000B11D8093E9009093EA00A093EB00B093D4
:1004F000EC00BF91AF919F918F913F912F910F9001
:100500000FBE0F901F9018951F920F920FB60F926B
:1005100011241F932F933F934F935F936F937F9378
:100520008F939F93AF93BF93CF93DF93EF93FF93FB
:100530008091CD00882311F18091C90091E0980F3E
:100540009093C90081111AC0C091CB001091600036
:100550008091CC00C81760F16091C8008AE0BADDD4
:1005600060E0812FB7DD1092CD008091C6009091A0
:10057000C70001969093C7008093C6008091C90080
:10058000883010F01092C900FF91EF91DF91CF9168
:10059000BF91AF919F918F917F916F915F914F919B
:1005A0003F912F911F910F900FBE0F901F901895A4
:1005B000EC2FF0E0EF59FF4F60812091CA00D1E0AD
:1005C000D20FD093CA0081E090E001C0880F2A9535
:1005D000EAF76823812F7EDDD630B0F21092CA0090
:1005E000CF5FC093CB00CACF1F920F920FB60F926E
:1005F00011248F9381E08093A5008F910F900FBEFF
:100600000F901F901895CF93DF93CDB7DEB72E973D
:100610000FB6F894DEBF0FBECDBF789480B7806868
:1006200080BF80B7806480BF8CB580648CBD8FEF45
:100630008DBD80B7807F876080BF89B7846089BFA8
:1006400083B7887F83BF8AB58C7F81608ABD83B77B
:10065000877F83BF83B7887F836083BF86B18760CE
:1006600086B9379A60E087E065DD60E088E062DDAA
:1006700061E083E05FDD61E083E02CDD1092CF007C
:1006800080E090E0A0E8BFEB8093D0009093D10091
:10069000A093D200B093D30011E01093D4008093C4
:1006A000D5009093D600A093D700B093D80022E055
:1006B0002093D9008093DA009093DB00A093DC00B4
:1006C000B093DD0023E02093DE008093DF00909361
:1006D000E000A093E100B093E20024E02093E30067
:1006E0008093E4009093E500A093E600B093E700C8
:1006F00060E08091F7001EDD61E08091F700EADCA8
:100700001092FA001092FB001092FC001092FD0073
:10071000109260001093C8008EE0E6EAF0E0DE017F
:10072000119601900D928A95E1F77E0183E0E80E23
:10073000F11CD7016D917D917D0190E080E01DD38A
:100740009B01AC0160E275EC8BE79BE47DD29B01E1
:10075000AC0160E070E080E89FE376D29B01AC01E1
:100760006FE672E183E098E36FD2D6D29B01AB01D2
:10077000BC01DC01C9010297A109B1098D3F9105B6
:10078000A105B10508F49EC11F5F173091F64230F4
:10079000510561057105E8F04F3F5105610571058F
:1007A00009F0B8F41ABC82E08ABD13BE13BF29BD9C
:1007B00089B7806189BF61E080916000BBDC60E047
:1007C0008BE0B8DC61E08AE0B5DC6091C8008AE0CB
:1007D00081DC62E370E080E090E017DD84B7877F22
:1007E00084BF81B5886181BD81E381BD81B58064AD
:1007F00081BDE2E05E2E0AE010E0F8EE8F2EF3E01D
:100800009F2EA12CB12CAEE06A2EBAE27B2E88EE90
:10081000E82E80E0F82E90E4C92EDD24D394809158
:10082000A5008130E1F71092A50064EC79E080E04A
:1008300090E0EBDC5092CE006FE070E080E090E062
:10084000E4DC88E0D2DD20E030EC4FE754E4FCD17A
:100850002EEA37E449EB50E41ED36093D000709346
:10086000D1008093D2009093D3001092CE0087E005
:10087000BCDD20E030EC4FE754E4E6D120E030E08E
:1008800048EC52E408D39B01AC0160E070E088ECD6
:1008900092E475D16093D5007093D6008093D70011
:1008A0009093D800D5DC882359F08091F8006091AE
:1008B000F30070E08B30C9F018F08551823018F0E9
:1008C00069E17CEF12C02091F300822F8F7790E0D6
:1008D000982F88273091F400830F911DB80114D10F
:1008E00027FF03C0719561957109072E000C880BD5
:1008F000990B45D26093DA007093DB008093DC00A3
:100900009093DD00A5DC882351F08091F800609180
:10091000F1008B3089F018F08551823010F06FEFC4
:100920000BC08091F10090E0982F88272091F20071
:10093000820F911DB801D4D070E090E080E01DD20C
:100940006093DF007093E0008093E1009093E200F9
:100950002FB7F8946091ED007091EE008091EF0058
:100960009091F0002FBFA5019401E1D0CA01B90117
:1009700004D26093E4007093E5008093E6009093C6
:10098000E7008091CD008111FCCF609269007092E8
:100990006A005FEC252E50E0352EE1E6F0E08AE6B5
:1009A00095EDD1016D911D01362F3827232F22950A
:1009B000207F2327422F50E0892F9927922B9A01DD
:1009C000A4E035952795AA95E1F782279327B3E010
:1009D000440F551FBA95E1F784279527262F30E05D
:1009E00044E0359527954A95E1F72C543F4FD901BE
:1009F0002C9122876F7070E06C547F4FDB012C913B
:100A000023873296E214F30461F680959095FC01F9
:100A100024E0F695E7952A95E1F7EF70FF27EC546F
:100A2000FF4F208120939D00FC01EF70FF27EC54C5
:100A3000FF4F208120939E00FC01EF2FFF27E295BE
:100A4000EF70EC54FF4F208120939F00892F99274E
:100A5000FC01EF70FF27EC54FF4F80818093A000D2
:100A6000C092CC001092CB001092CA001092C90024
:100A70006091C8006D258AE02DDBD092CD00809179
:100A8000CD008111FCCF60E083E024DB379899E052
:100A9000379885B7877E806185BF85B7806285BFBF
:100AA00085B7806285BF889585B78F7D85BF85B7FF
:100AB0008F7D85BF379A915059F7379A61E083E06F
:100AC00009DBADCE163009F06DCE83CEE1EFF0E05C
:100AD00081E086839BE0978396E0908785870895E1
:100AE000AA1BBB1B51E107C0AA1FBB1FA617B70754
:100AF00010F0A61BB70B881F991F5A95A9F7809570
:100B00009095BC01CD01089597FB072E16F4009433
:100B100006D077FD08D0E4DF07FC05D03EF49095C1
:100B200081959F4F0895709561957F4F0895A1E23B
:100B30001A2EAA1BBB1BFD010DC0AA1FBB1FEE1F57
:100B4000FF1FA217B307E407F50720F0A21BB30BA2
:100B5000E40BF50B661F771F881F991F1A9469F71E
:100B600060957095809590959B01AC01BD01CF017A
:100B70000895EE0FFF1F0590F491E02D0994505851
:100B8000BB27AA270ED04DC13ED130F043D120F073
:100B900031F49F3F11F41EF433C10EF4E095E7FBEE
:100BA00029C1E92F4FD180F3BA1762077307840771
:100BB000950718F071F49EF567C10EF4E0950B2EC1
:100BC000BA2FA02D0B01B90190010C01CA01A0019F
:100BD0001124FF27591B99F0593F50F4503E68F1FA
:100BE0001A16F040A22F232F342F4427585FF3CF3B
:100BF000469537952795A795F0405395C9F77EF40C
:100C00001F16BA0B620B730B840BBAF09150A1F054
:100C1000FF0FBB1F661F771F881FC2F70EC0BA0FDA
:100C2000621F731F841F48F4879577956795B79562
:100C3000F7959E3F08F0B3CF9395880F08F099275A
:100C4000EE0F9795879508950CD0EBC0E3D040F058
:100C5000DAD030F021F45F3F19F0CCC0511115C14A
:100C6000CFC0F0D098F39923C9F35523B1F3951B66
:100C7000550BBB27AA2762177307840738F09F5FBD
:100C80005F4F220F331F441FAA1FA9F333D00E2E2C
:100C90003AF0E0E830D091505040E695001CCAF799
:100CA00029D0FE2F27D0660F771F881FBB1F26175E
:100CB00037074807AB07B0E809F0BB0B802DBF0131
:100CC000FF2793585F4F2AF09E3F510568F092C06E
:100CD000DCC05F3FECF3983EDCF386957795679533
:100CE000B795F7959F5FC9F7880F911D96958795E2
:100CF00097F90895E1E0660F771F881FBB1F621701
:100D000073078407BA0720F0621B730B840BBA0BBE
:100D1000EE1F88F7E095089504D06894B111B5C02E
:100D2000089598D088F09F5790F0B92F9927B75120
:100D3000A0F0D1F0660F771F881F991F1AF0BA959F
:100D4000C9F712C0B13081F09FD0B1E008959CC0C6
:100D5000672F782F8827B85F39F0B93FCCF3869595
:100D600077956795B395D9F73EF4909580957095F2
:100D700061957F4F8F4F9F4F0895E89409C097FB6F
:100D80003EF490958095709561957F4F8F4F9F4F62
:100D90009923A9F0F92F96E9BB279395F6958795A6
:100DA00077956795B795F111F8CFFAF4BB0F11F469
:100DB00060FF1BC06F5F7F4F8F4F9F4F16C0882310
:100DC00011F096E911C0772321F09EE8872F762F46
:100DD00005C0662371F096E8862F70E060E02AF087
:100DE0009A95660F771F881FDAF7880F9695879573
:100DF00097F9089597F99F6780E870E060E008959B
:100E00009FEF80EC089500240A9416161706180622
:100E10000906089500240A941216130614060506FE
:100E20000895092E0394000C11F4882352F0BB0F8F
:100E300040F4BF2B11F460FF04C06F5F7F4F8F4FF2
:100E40009F4F089557FD9058440F551F59F05F3F2D
:100E500071F04795880F97FB991F61F09F3F79F0DC
:100E600087950895121613061406551FF2CF46955E
:100E7000F1DF08C0161617061806991FF1CF8695E0
:100E80007105610508940895E894BB2766277727C4
:100E9000CB0197F908950AD0C4CFB5DF28F0BADFA7
:100EA00018F0952309F0A6CFABCFEFCFCBDFA8F397
:100EB0009923D9F35523C9F3950F50E0551FAA275D
:100EC000EE27FF27BB2700240894679520F4E20F44
:100ED000F31FB41F0A1E220F331F441FAA1F66955B
:100EE000A9F7779530F4F30FB41F0A1E121E08F409
:100EF0006395330F441FAA1F221F769599F7879594
:100F000020F4B40F0A1E121E631F440FAA1F221FD3
:100F1000331F8695A9F7862F712D602D11249F57B9
:100F200050408AF0E1F088234AF0EE0FFF1FBB1F0C
:100F3000661F771F881F91505040A9F79E3F5105AB
:100F400070F058CFA2CF5F3FECF3983EDCF386956C
:100F500077956795B795F795E7959F5FC1F7FE2B56
:100F6000880F911D9695879597F90895F894FFCF6E
:100F70000C2A2A2A2A2A2A382C0000000000000005
:100F80000000000000000000000000000000000061
:100F90000000000000000000000000000000000051
:100FA0000000000000000000000000000000000041
:100FB00000000000000100000100080040000001E6
:100FC0000004050D0D0E131516191A1C23252629CC
:040FD0002A2C323461
:00000001FF
